:100000000C9434000C9451000C9451000C94510049
:100010000C9451000C9451000C9451000C9451001C
:100020000C9451000C9451000C9451000C9451000C
:100030000C9451000C94AF000C9451000C9451009E
:100040000C9451000C9451000C9451000C945100EC
:100050000C9451000C9451000C9451000C945100DC
:100060000C9451000C94510011241FBECFEFD8E026
:10007000DEBFCDBF11E0A0E0B1E0EAEBF1E002C0ED
:1000800005900D92A230B107D9F721E0A2E0B1E0CE
:1000900001C01D92A330B207E1F70E9478000C94D2
:1000A000DB000C940000FC01408121E030E002C044
:1000B000220F331F6A95E2F7242B20830895FC0159
:1000C000908121E030E002C0220F331F6A95E2F7F1
:1000D0002095292320830895FC01408121E030E010
:1000E00002C0220F331F6A95E2F7242B2083089564
:1000F00065E084E290E00E94530065E085E290E0D4
:100100000E946C0064E084E290E00E94530064E08E
:1001100085E290E00E945F0063E084E290E00E944C
:10012000530063E085E290E00E945F0062E084E2B9
:1001300090E00E94530062E085E290E00E945F0040
:10014000E1E8F0E080818B7F808380818360808321
:10015000EFE6F0E08081816080837894FFCF1F928A
:100160000F920FB60F9211248F938091020181118B
:100170000FC080910001869580930001809585B91C
:1001800080910001843089F481E0809302010DC0E8
:1001900080910001880F80930001809585B980913E
:1001A0000001803211F4109202018F910F900FBE66
:0A01B0000F901F901895F894FFCFF0
:0201BA00200023
:00000001FF
