:100000000C9434000C9451000C9451000C94510049
:100010000C9451000C9451000C9451000C9451001C
:100020000C9451000C9451000C9451000C9451000C
:100030000C9451000C9427010C9451000C94510025
:100040000C9451000C9451000C9451000C945100EC
:100050000C9451000C9451000C9451000C945100DC
:100060000C9451000C94510011241FBECFEFD8E026
:10007000DEBFCDBF11E0A0E0B1E0EAEAF2E002C0ED
:1000800005900D92A230B107D9F721E0A2E0B1E0CE
:1000900001C01D92A330B207E1F70E9493000C94B7
:1000A00053010C940000FC01408121E030E002C0CB
:1000B000220F331F6A95E2F7242B20830895FC0159
:1000C000808121E030E002C0220F331F6A95E2F701
:1000D000922F9095892380838181282B21830895F5
:1000E000FC01908121E030E002C0220F331F6A95AD
:1000F000E2F72095292320830895FC01408121E027
:1001000030E002C0220F331F6A95E2F7242B2083D0
:100110000895FC01808190E002C0959587956A95CD
:10012000E2F78170089565E084E290E00E94530058
:1001300065E085E290E00E947D0064E084E290E06A
:100140000E94530064E085E290E00E94700063E04A
:1001500084E290E00E94530063E085E290E00E9418
:10016000700062E084E290E00E94530062E085E269
:1001700090E00E94700061E087E290E00E945F00E2
:10018000E1E8F0E080818B7F8083808183608083E1
:10019000EFE6F0E08081816080837894C2E061E0E6
:1001A00086E290E00E9489008111F9CFC230F1F01F
:1001B00028F4CC2379F1C13019F136C0C33061F095
:1001C000C43091F5E1E8F0E080818C7F808380810C
:1001D00084608083C3E031C0E1E8F0E080818B7F00
:1001E0008083808183608083C2E027C0E1E8F0E003
:1001F00080818A7F8083808182608083C1E01DC08E
:10020000E1E8F0E08081897F808380818160808364
:10021000C0E013C0E1E8F0E080818D7F80838081C1
:1002200085608083C4E009C0E1E8F0E080818D7FD3
:100230008083808185608083C4E02FEF89E698E128
:10024000215080409040E1F700C00000A8CF1F92ED
:100250000F920FB60F9211248F938091020181119A
:100260000FC080910001869580930001809585B92B
:1002700080910001843089F481E0809302010DC0F7
:1002800080910001880F80930001809585B980914D
:100290000001803211F4109202018F910F900FBE75
:0A02A0000F901F901895F894FFCFFF
:0202AA00200032
:00000001FF
