:100000000C9434000C943E000C943E000C943E0082
:100010000C943E000C943E000C943E000C943E0068
:100020000C943E000C943E000C943E000C943E0058
:100030000C943E000C943E000C943E000C943E0048
:100040000C943E000C943E000C943E000C943E0038
:100050000C943E000C943E000C943E000C943E0028
:100060000C943E000C943E0011241FBECFEFD8E04C
:10007000DEBFCDBF0E9440000C944D010C940000E7
:1000800087B18F6187B984B18D7F84B920E080E02A
:10009000E0E00FEF10E732E0015010403040E1F7B0
:1000A00000C00000F0E0AF01440F551FE3B1E6953A
:1000B000E170E42B9E2F9F709F3029F490E0880F11
:1000C000991F816001C0880F833009F421E021303D
:1000D00001F764C061E070E00A2E02C0660F771F6E
:1000E0000A94E2F7F62FB0E029C088B18F2B88B9C7
:1000F00090E005C045E34A95F1F700009F5F8DEC65
:10010000B89F812D1124869586958695981790F332
:1001100098B1262F2095922398B990E005C005E369
:100120000A95F1F700009F5F492F50E02FEF30E074
:10013000281B31094217530794F3BF5FBF3FA9F64D
:1001400029C088B18F2B88B990E005C015E31A95B6
:10015000F1F700009F5F8DECB89F812D11248695EB
:1001600086958695981790F398B1262F209592231F
:1001700098B990E005C025E32A95F1F700009F5F4C
:10018000492F50E02FEF30E0281B31094217530769
:1001900094F3B150B111D5CFAF5F01C0A0E0A5304D
:1001A00008F498CFA0E070C084E090E08A1B910929
:1001B00061E070E002C0660F771F8A95E2F7F62FC4
:1001C000C0E032C088B18F2B88B990E005C035E31C
:1001D0003A95F1F700009F5F8DECC89F812D1124A7
:1001E000869586958695981790F388B1962F909569
:1001F000892388B9B0E005C045E34A95F1F70000CE
:10020000BF5F4B2F50E08BEAC89F812D112486954C
:10021000869586952FEF30E08901081B11099A0118
:10022000201731074CF3CF5FCF3F61F6BFEF29C0F6
:1002300088B18F2B88B990E005C015E31A95F1F7C6
:1002400000009F5F8DECB89F812D112486958695C7
:100250008695981790F398B1262F2095922398B9F8
:1002600090E005C025E32A95F1F700009F5F492F34
:1002700050E02FEF30E0281B31094217530794F369
:10028000B150B111D5CFAF5FA53008F48DCF88B193
:0E029000807E88B920E082E0FCCEF894FFCF9B
:00000001FF
