:100000000C9434000C943E000C943E000C943E0082
:100010000C943E000C943E000C943E000C943E0068
:100020000C943E000C943E000C943E000C943E0058
:100030000C943E000C943E000C943E000C943E0048
:100040000C943E000C943E000C943E000C943E0038
:100050000C943E000C943E000C943E000C943E0028
:100060000C943E000C943E0011241FBECFEFD8E04C
:10007000DEBFCDBF0E9440000C9466000C940000CF
:1000800087B1816087B984B1806284B98AB18F7782
:100090008AB988B18E7F88B985B1806285B98BB104
:1000A00080688BB94F99FECF2FEF89E698E12150F8
:1000B00080409040E1F700C0000098B181E08927BE
:1000C00088B995B180E2892785B9ECCFF894FFCF44
:00000001FF
