S00B00006C65642E73726563E4
S11300000C9434000C9449000C9449000C9449005D
S11300100C9449000C9449000C9449000C94490038
S11300200C9449000C9449000C9449000C94490028
S11300300C9449000C9449000C9449000C94490018
S11300400C9449000C9449000C9449000C94490008
S11300500C9449000C9449000C9449000C944900F8
S11300600C9449000C94490011241FBECFEFD8E032
S1130070DEBFCDBF11E0A0E0B1E0E2EEF1E002C0EE
S113008005900D92AC3AB107D9F70E94E4000C94A4
S1130090EF000C94000085B18F7D85B92FEF8DE3BF
S11300A099E4215080409040E1F700C00000089599
S11300B085B1806285B92FEF8DE399E421508040AA
S11300C09040E1F700C0000085B18F7D85B92FEF26
S11300D089E698E1215080409040E1F700C000009B
S11300E0089585B1806285B92FEF89E698E12150A2
S11300F080409040E1F700C0000085B18F7D85B954
S11301002FEF89E698E1215080409040E1F700C04C
S113011000000895CF93DF93EC010AC08D3219F4E7
S11301200E94580004C08E3211F40E94710021967E
S113013088818111F3CFDF91CF9108959FEB980FC0
S11301409F3168F4E82FF0E0E154F109EE0FFF1F4E
S1130150EC5EFE4F808191810E948A0008959FE9A0
S1130160980F9A3168F4E82FF0E0E156F109EE0FA8
S1130170FF1FEC5EFE4F808191810E948A000895EA
S113018090ED980F9A3058F4E82FF0E0F097EE0FC6
S1130190FF1FE050FF4F808191810E948A000895E3
S11301A0CF93DF93EC010AC08F3219F40E944B0005
S11301B004C00E949E000E944B00219688818111F8
S11301C0F3CFDF91CF91089584B1806284B985B172
S11301D08F7D85B988E491E00E94D000FBCFF8942C
S10501E0FFCF4B
S11301E24D01530159015F0165016B0171017701F1
S11301F27D0183019F01780189017F0187018E01BD
S11302028501720180015A019E0193015001860108
S11302124F0198019D018A0179015101A3016601EF
S1130222A801A201A7017E014445322F002D2D2DE4
S11302322D2D002E2D2D2D2D002E2E2D2D2D002E6B
S11302422E2E2D2D002E2E2E2E2D002E2E2E2E2E27
S1130252002D2E2E2E2E002D2D2E2E2E002D2D2D48
S11302622E2E002D2D2D2D2E002D2E2D2E002E2E38
S11302722D2E002E2D2E2E002E2D2D2E002D2D2E28
S10F02822D002D2E2E2D002D2E2D2D00D4
S9030000FC
