:100000000C9434000C9449000C9449000C94490061
:100010000C9449000C9449000C9449000C9449003C
:100020000C9449000C9449000C9449000C9449002C
:100030000C9449000C9449000C9449000C9449001C
:100040000C9449000C9449000C9449000C9449000C
:100050000C9449000C9449000C9449000C944900FC
:100060000C9449000C94490011241FBECFEFD8E036
:10007000DEBFCDBF11E0A0E0B1E0ECE2F2E002C0F3
:1000800005900D92AC3AB107D9F70E94F3000C9499
:1000900014010C94000085B18F7D85B98AB1877FEA
:1000A0008AB92FEF8DE399E4215080409040E1F729
:1000B00000C00000089585B1806285B98AB188606A
:1000C0008AB92FEF8DE399E4215080409040E1F709
:1000D00000C0000085B18F7D85B98AB1877F8AB95C
:1000E0002FEF89E698E1215080409040E1F700C071
:1000F0000000089585B1806285B98AB188608AB9A7
:100100002FEF89E698E1215080409040E1F700C050
:10011000000085B18F7D85B98AB1877F8AB92FEFBD
:1001200089E698E1215080409040E1F700C000004E
:100130000895CF93DF93EC010AC08D3219F40E9429
:100140005B0004C08E3211F40E947A0021968881EF
:100150008111F3CFDF91CF9108959FEB980F9F31DD
:1001600068F4E82FF0E0E154F109EE0FFF1FEC5EB8
:10017000FE4F808191810E94990008959FE9980F18
:100180009A3168F4E82FF0E0E156F109EE0FFF1F15
:10019000EC5EFE4F808191810E949900089590ED60
:1001A000980F9A3058F4E82FF0E0F097EE0FFF1F09
:1001B000E050FF4F808191810E9499000895CF9374
:1001C000DF93EC010AC08F3219F40E944B0004C087
:1001D0000E94AD000E944B00219688818111F3CFCF
:1001E000DF91CF91089584B1806284B985B18F7D0C
:1001F00085B98AB1877F8AB98FEF91E090938900A2
:1002000080938800E0E8F0E08081806880838081CE
:1002100083608083E1E8F0E080818260808388E40D
:0C02200091E00E94DF00FBCFF894FFCFBC
:10022C004D01530159015F0165016B0171017701AA
:10023C007D0183019F01780189017F0187018E0176
:10024C008501720180015A019E01930150018601C2
:10025C004F0198019D018A0179015101A3016601A9
:10026C00A801A201A7017E014445322F002D2D2D9E
:10027C002D2D002E2D2D2D2D002E2E2D2D2D002E25
:10028C002E2E2D2D002E2E2E2E2D002E2E2E2E2EE1
:10029C00002D2E2E2E2E002D2D2E2E2E002D2D2D02
:1002AC002E2E002D2D2D2D2E002D2E2D2E002E2EF2
:1002BC002D2E002E2D2E2E002E2D2D2E002D2D2EE2
:0C02CC002D002D2E2E2D002D2E2D2D008E
:00000001FF
