S00B00006C65642E73726563E4
S11300000C9434000C943E000C943E000C943E007E
S11300100C943E000C943E000C943E000C943E0064
S11300200C943E000C943E000C943E000C943E0054
S11300300C943E000C943E000C943E000C943E0044
S11300400C943E000C943E000C943E000C943E0034
S11300500C943E000C943E000C943E000C943E0024
S11300600C943E000C943E0011241FBECFEFD8E048
S1130070DEBFCDBF0E9440000C9451000C940000E0
S113008084B1806284B985B18F7D85B98FE79BEB9C
S11300900197F1F700C0000095B180E2892785B986
S10900A0F5CFF894FFCF38
S9030000FC
