S00B00006C65642E73726563E4
S11300000C9434000C9449000C9449000C9449005D
S11300100C9449000C9449000C9449000C94490038
S11300200C9449000C9449000C9449000C94490028
S11300300C9449000C9449000C9449000C94490018
S11300400C9449000C9449000C9449000C94490008
S11300500C9449000C9449000C9449000C944900F8
S11300600C9449000C94490011241FBECFEFD8E032
S1130070DEBFCDBF11E0A0E0B1E0E4E1F1E002C0F9
S113008005900D92A030B107D9F70E947D000C9421
S113009088000C94000085B1806285B92FEF8DE350
S11300A099E4215080409040E1F700C0000085B100
S11300B08F7D85B92FEF89E698E1215080409040EB
S11300C0E1F700C00000089585B1806285B92FEF83
S11300D089E698E1215080409040E1F700C000009B
S11300E085B18F7D85B92FEF89E698E12150804055
S11300F09040E1F700C00000089584B1806284B9A3
S113010085B18F7D85B90E9464000E944B00FBCFAE
S1070110F894FFCF8D
S9030000FC
