S00D00006C61625F372E7372656352
S11300000C9434000C9451000C9451000C94510045
S11300100C9451000C9451000C9451000C94510018
S11300200C9451000C9451000C9451000C94510008
S11300300C9451000C94AD010C9451000C9451009B
S11300400C9451000C9451000C94A3020C94D10212
S11300500C9451000C94B7010C9451000C94510071
S11300600C9451000C94510011241FBECFEFD8E022
S1130070DEBFCDBF11E0A0E0B1E0EEEDF6E002C0DE
S113008005900D92AA35B107D9F722E0AAE5B1E0AF
S113009001C01D92AF35B207E1F70E9448010C94EC
S11300A06D030C94000085B1826085B985E08A9562
S11300B0F1F7000085B18D7F85B90895CF93C82FDE
S11300C0662321F085B1816085B903C085B18E7F37
S11300D085B98AB180618AB98AB180628AB98AB1E4
S11300E080648AB98AB180688AB98BB18F778BB9F9
S11300F08BB18F7B8BB98BB18F7D8BB98BB18F7E9D
S11301008BB9CC231CF48BB180688BB9C6FF03C0B8
S11301108BB180648BB9C5FF03C08BB180628BB98E
S1130120C4FF03C08BB180618BB90E9453008BB1B3
S11301308F778BB98BB18F7B8BB98BB18F7D8BB95B
S11301408BB18F7E8BB9C3FF03C08BB180688BB931
S1130150C2FF03C08BB180648BB9C1FF03C08BB1F4
S113016080628BB9C0FF03C08BB180618BB90E94E0
S113017053008BB180618BB98BB180628BB98BB129
S113018080648BB98BB180688BB987EB9BE0019756
S1130190F1F700C00000CF91089560E00E945E0076
S11301A00895611104C080580E94CD0008958054C0
S11301B00E94CD00089581E00E94CD00089561E081
S11301C00E945E000895CF93DF93FC0103C00E9458
S11301D0DF00FE01EF01219680818111F8CFDF91CC
S11301E0CF910895CF93C82F84B1816084B98AB127
S11301F080628AB984B1826084B98AB180618AB923
S11302008AB180628AB98AB180648AB98AB1806805
S11302108AB98FEF99EF0197F1F700C000008BB115
S113022080628BB98BB180618BB90E9453008FE1DE
S11302309EE40197F1F700C000000E9453008FEF85
S113024090E00197F1F700C000000E9453008FEF87
S113025090E00197F1F700C000008BB18F7E8BB95D
S11302600E9453008FEF90E00197F1F700C0000067
S113027088E20E94CD0088E00E94CD000E94DB004D
S113028086E00E94CD008C2F0E94CD00CF9108956E
S11302908CE00E94F20060E081E00E94D10080E0E6
S11302A091E00E94E30061E083E00E94D10087E0D6
S11302B091E00E94E30060E088E00E94D1008CE0BD
S11302C091E00E94E30060E08DE00E94D1008EE0A6
S11302D091E00E94E30061E088E00E94D10080E1A7
S11302E091E00E94E300ACE7B0E08C9180648C93D1
S11302F08C918F778C938C91887F8C93EAE7F0E0D4
S11303008081806880838081886080838081876029
S11303108083CBE7D0E088818660888388818E7F64
S11303208883C1E8D0E088818B7F8883888183605B
S11303308883CFE6D0E0888181608883808180646F
S113034080838081806280838C918F7D8C9387E60B
S113035090E00E94FB027894FFCF1F920F920FB699
S11303600F9211240F900FBE0F901F9018951F929B
S11303700F920FB60F9211240F931F932F933F9355
S11303804F935F936F937F938F939F93AF93BF9399
S1130390EF93FF93CF93DF9300D000D0CDB7DEB7B8
S11303A080E390E39A8389839C838B830091780014
S11303B01091790060E088E00E94D10080E391E030
S11303C00E94E3004AE0BE016F5F7F4FC8010E94B4
S11303D0380360E088E00E94D100CE0101960E94BB
S11303E0E30082E191E00E942B038AE191E00E9404
S11303F02B03CE0101960E942B0383E391E00E941C
S11304002B0360E08DE00E94D10080E391E00E9424
S1130410E30040E1BE016F5F7F4FC8010E943803D3
S113042060E08DE00E94D100CE0101960E94E300BD
S1130430CE0101960E942B0383E291E00E942B03DC
S113044061E088E00E94D1008EE291E00E94E30026
S11304500B34110568F461E088E00E94D10085E363
S113046091E00E94E30085E391E00E942B034EC0DB
S11304700639110568F461E088E00E94D1008BE33D
S113048091E00E94E3008BE391E00E942B033EC0C5
S11304900E3581E0180768F461E088E00E94D1001D
S11304A08EE391E00E94E3008EE391E00E942B032F
S11304B02DC0063282E0180768F461E088E00E94EB
S11304C0D10083E491E00E94E30083E491E00E9480
S11304D02B031CC00032134068F461E088E00E94E2
S11304E0D10088E491E00E94E30088E491E00E9456
S11304F02B030CC061E088E00E94D1008FE491E0FE
S11305000E94E3008FE491E00E942B0384E591E0D4
S11305100E942B030F900F900F900F90DF91CF91BB
S1130520FF91EF91BF91AF919F918F917F916F91C7
S11305305F914F913F912F911F910F910F900FBE9B
S11305400F901F9018951F920F920FB60F921124BF
S11305502F938F939F93EF93FF938091C0002091EB
S1130560C6008C71E0915C01EF5FEF7790915B01C5
S1130570E91739F0E0935C01F0E0E15AFE4F208383
S113058001C082E090915A01892B80935A01FF9116
S1130590EF919F918F912F910F900FBE0F901F900D
S11305A018951F920F920FB60F9211248F939F9359
S11305B0EF93FF9390915E0180915D01981769F02C
S11305C0E0915D01EF5FEF77E0935D01F0E0E152D0
S11305D0FE4F80818093C60005C0E1ECF0E080818D
S11305E08F7D8083FF91EF919F918F910F900FBE2C
S11305F00F901F90189510925E0110925D01109259
S11306005C0110925B01282F392F33231CF422E064
S11306102093C00090789093C5008093C40088E92B
S11306208093C10086E08093C200089520915E010A
S11306302F5F2F7790915D012917E1F3E22FF0E00E
S1130640E152FE4F808320935E01E1ECF0E0808173
S1130650806280830895CF93DF93EC0103C02196D9
S11306600E94160388818111FACFDF91CF910895FA
S1130670BB274A3031F4992322F4BDE29095819549
S11306809F4F0C944403BB27FB015527AA27880FCF
S1130690991FAA1FA41710F0A41B83955051B9F7F2
S11306A0A05DAA3308F0A95DA193009779F7B11171
S11306B0B1931192CB010C945D03DC01FC01672F13
S11306C071917723E1F7329704C07C916D93708325
S11106D06291AE17BF07C8F30895F894FFCFE8
S11306DE76616C75653A006B65793A00610062006B
S11306EE63001B5B343B33326D002076616C7565A1
S11306FE3A20000D0A2020206B65793A2000202034
S113070E2020202000526967687400557000446FE1
S113071E776E004C6566740053656C656374004EA9
S10D072E6F6E65000D0A0D0A00004D
S9030000FC
