S00D00006C61625F362E7372656353
S11300000C9434000C9451000C9451000C94510045
S11300100C9451000C9451000C9451000C94510018
S11300200C9451000C946D010C9451000C945100EB
S11300300C9451000C9451000C9451000C945100F8
S11300400C9451000C9451000C9451000C945100E8
S11300500C9451000C9451000C9451000C945100D8
S11300600C9451000C94510011241FBECFEFD8E022
S1130070DEBFCDBF11E0A0E0B1E0EEE7F4E002C0E6
S113008005900D92A431B107D9F721E0A4E1B1E0C4
S113009001C01D92A931B207E1F70E9448010C94F6
S11300A03D020C94000085B1826085B985E08A9593
S11300B0F1F7000085B18D7F85B90895CF93C82FDE
S11300C0662321F085B1816085B903C085B18E7F37
S11300D085B98AB180618AB98AB180628AB98AB1E4
S11300E080648AB98AB180688AB98BB18F778BB9F9
S11300F08BB18F7B8BB98BB18F7D8BB98BB18F7E9D
S11301008BB9CC231CF48BB180688BB9C6FF03C0B8
S11301108BB180648BB9C5FF03C08BB180628BB98E
S1130120C4FF03C08BB180618BB90E9453008BB1B3
S11301308F778BB98BB18F7B8BB98BB18F7D8BB95B
S11301408BB18F7E8BB9C3FF03C08BB180688BB931
S1130150C2FF03C08BB180648BB9C1FF03C08BB1F4
S113016080628BB9C0FF03C08BB180618BB90E94E0
S113017053008BB180618BB98BB180628BB98BB129
S113018080648BB98BB180688BB987EB9BE0019756
S1130190F1F700C00000CF91089560E00E945E0076
S11301A00895611104C080580E94CD0008958054C0
S11301B00E94CD00089581E00E94CD00089561E081
S11301C00E945E000895CF93DF93FC0103C00E9458
S11301D0DF00FE01EF01219680818111F8CFDF91CC
S11301E0CF910895CF93C82F84B1816084B98AB127
S11301F080628AB984B1826084B98AB180618AB923
S11302008AB180628AB98AB180648AB98AB1806805
S11302108AB98FEF99EF0197F1F700C000008BB115
S113022080628BB98BB180618BB90E9453008FE1DE
S11302309EE40197F1F700C000000E9453008FEF85
S113024090E00197F1F700C000000E9453008FEF87
S113025090E00197F1F700C000008BB18F7E8BB95D
S11302600E9453008FEF90E00197F1F700C0000067
S113027088E20E94CD0088E00E94CD000E94DB004D
S113028086E00E94CD008C2F0E94CD00CF9108956E
S11302908CE00E94F20060E081E00E94D10080E0E6
S11302A091E00E94E30081E20E94DF002FEF83EDE2
S11302B090E3215080409040E1F700C000000E948C
S11302C0DB00E1EBF0E0808187608083E0E7F0E031
S11302D08081816080837894FFCF1F920F920FB644
S11302E00F9211242F933F934F935F936F937F93B8
S11302F08F939F93AF93BF93CF93EF93FF9380918B
S113030018018F5F80931801863008F490C0109212
S1130310180160E081E00E94D100C1E025C02C2FCB
S11303200C2E000C330BF9013196EE0FFF1FE75F23
S1130330FE4F6081718180911601909117010E9496
S11303402902220F331FF901E75FFE4F608171819B
S11303500E94290280E3860F0E94DF00C11103C0BE
S11303608AE30E94DF00C150CC23CCF6C3E025C051
S11303702C2F0C2E000C330BF9013196EE0FFF1FBE
S1130380E75FFE4F608171818091140190911501A6
S11303900E942902220F331FF901E75FFE4F60819B
S11303A071810E94290280E3860F0E94DF00C2301F
S11303B019F48EE20E94DF00C1501C16CCF260E0FA
S11303C08BE00E94D10081E60E94DF0061E081E0C1
S11303D00E94D10082E60E94DF0061E08BE00E946F
S11303E0D10083E60E94DF008091140190911501F1
S11303F0803727E1920730F40A9690931501809391
S1130400140115C010921501109214018091160167
S1130410909117018C33910530F401969093170154
S11304208093160104C01092170110921601FF91D7
S1130430EF91CF91BF91AF919F918F917F916F91E8
S11304405F914F913F912F910F900FBE0F901F908E
S11304501895AA1BBB1B51E107C0AA1FBB1FA617F7
S1130460B70710F0A61BB70B881F991F5A95A9F759
S111047080959095BC01CD010895F894FFCFBE
S113047E4C434420546573740001000A006400E880
S107048E031027002C
S9030000FC
