:100000000C9434000C9451000C9451000C94510049
:100010000C9451000C9451000C9451000C9451001C
:100020000C9451000C944C010C9451000C94510010
:100030000C9451000C9451000C9451000C945100FC
:100040000C9451000C9451000C9451000C945100EC
:100050000C9451000C9451000C9451000C945100DC
:100060000C9451000C94510011241FBECFEFD8E026
:10007000DEBFCDBF11E0A0E0B1E0E2E3F6E002C0F8
:1000800005900D92A434B107D9F721E0A4E4B1E0C2
:1000900001C01D92A934B207E1F70E94B2020C948C
:1000A00017030C94000085B1826085B985E08A95BC
:1000B000F1F7000085B18D7F85B90895CF93C82FE2
:1000C000662321F085B1816085B903C085B18E7F3B
:1000D00085B98AB180618AB98AB180628AB98AB1E8
:1000E00080648AB98AB180688AB98BB18F778BB9FD
:1000F0008BB18F7B8BB98BB18F7D8BB98BB18F7EA1
:100100008BB9CC231CF48BB180688BB9C6FF03C0BC
:100110008BB180648BB9C5FF03C08BB180628BB992
:10012000C4FF03C08BB180618BB90E9453008BB1B7
:100130008F778BB98BB18F7B8BB98BB18F7D8BB95F
:100140008BB18F7E8BB9C3FF03C08BB180688BB935
:10015000C2FF03C08BB180648BB9C1FF03C08BB1F8
:1001600080628BB9C0FF03C08BB180618BB90E94E4
:1001700053008BB180618BB98BB180628BB98BB12D
:1001800080648BB98BB180688BB987EB9BE001975A
:10019000F1F700C00000CF91089560E00E945E007A
:1001A000089561E00E945E000895611104C08058C6
:1001B0000E94CD00089580540E94CD00089581E0F2
:1001C0000E94CD00089561E00E945E000895CF93E3
:1001D000DF93FC0103C00E94E300FE01EF012196C2
:1001E00080818111F8CFDF91CF910895CF93C82FEF
:1001F00084B1816084B98AB180628AB984B1826035
:1002000084B98AB180618AB98AB180628AB98AB1B7
:1002100080648AB98AB180688AB98FEF99EF0197B3
:10022000F1F700C000008BB180628BB98BB18061A7
:100230008BB90E9453008FE19EE40197F1F700C053
:1002400000000E9453008FEF90E00197F1F700C08B
:1002500000000E9453008FEF90E00197F1F700C07B
:1002600000008BB18F7E8BB90E9453008FEF90E01E
:100270000197F1F700C0000088E20E94CD0088E0FD
:100280000E94CD000E94DF0086E00E94CD008C2FEE
:100290000E94CD00CF9108951F920F920FB60F923A
:1002A00011241F932F933F934F935F936F937F93EB
:1002B0008F939F93AF93BF93CF93DF93EF93FF936E
:1002C000809148018F5F80934801863008F410C107
:1002D0001092480160E081E00E94D500C1E025C095
:1002E0002C2F0C2E000C330BF9013196EE0FFF1F53
:1002F000E75CFE4F608171818091460190914701DA
:100300000E94F402220F331FF901E75CFE4F608167
:1003100071810E94F40280E3860F0E94E300C11104
:1003200003C08AE30E94E300C150CC23CCF6C3E0B3
:1003300025C02C2F0C2E000C330BF9013196EE0F3B
:10034000FF1FE75CFE4F60817181809144019091B5
:1003500045010E94F402220F331FF901E75CFE4FB2
:10036000608171810E94F40280E3860F0E94E300A5
:10037000C23019F48EE20E94E300C150CC23CCF6C7
:1003800060E08BE00E94D50040914401509145010E
:100390009A01329522952F7023273F702327A7E4D7
:1003A000B3E00E9408039695879596958795969554
:1003B000879560E177E2869F9001879F300D969F39
:1003C000300D1124CA01821B930B9C013695279591
:1003D0003695279536952795A5ECB0E20E9408033F
:1003E000EC01D295C295CF70CD27DF70CD279A0151
:1003F0003695279536952795369527950E940803BB
:10040000929582958F7089279F70892768EE73E097
:10041000869F9001879F300D969F300D1124CA0151
:10042000821B930B9C013695279536952795ABE754
:10043000B4E10E94080396958795CC0F9C2F990FE5
:10044000990FC90F8C0F889FE001112413E01DC084
:10045000212F012E000C330BF9013196EE0FFF1FF7
:10046000E75CFE4F60817181CE010E94F402220F91
:10047000331FF901E75CFE4F608171810E94F40235
:1004800080E3860F0E94E300115011230CF761E016
:1004900081E00E94D50082E60E94E30061E08BE0EB
:1004A0000E94D50083E60E94E30080914401909170
:1004B0004501803727E1920730F40A969093450171
:1004C0008093440115C0109245011092440180911F
:1004D0004601909147018C33910530F40196909339
:1004E00047018093460104C01092470110924601D3
:1004F000FF91EF91DF91CF91BF91AF919F918F913C
:100500007F916F915F914F913F912F911F910F902C
:100510000FBE0F901F9018950F931F93CF93DF93EB
:10052000D82F8B018CE00E94F6008D2F8295880FCA
:10053000880F807C0E94CD00C0E00AC0ED2FF0E063
:10054000EC0FF11DE00FF11F80810E94D100CF5F01
:10055000C830A0F380E80E94CD00DF91CF911F91B9
:100560000F9108958CE00E94F600C0E006C060E0A4
:1005700071E08C2F0E948C02CF5FCC23C1F30E94CC
:10058000DF00C0E004C08C2F0E94E300CF5FC830C2
:10059000D0F32FEF83ED90E3215080409040E1F7BE
:1005A00000C0000060E081E00E94D50080E391E09F
:1005B0000E94E70081E20E94E3002FEF83ED90E3C9
:1005C000215080409040E1F700C000000E94DF0011
:1005D000E1EBF0E0808187608083E0E7F0E08081FC
:1005E000816080837894FFCFAA1BBB1B51E107C0B9
:1005F000AA1FBB1FA617B70710F0A61BB70B881FB3
:10060000991F5A95A9F780959095BC01CD01089541
:10061000A29FB001B39FC001A39F700D811D112443
:10062000911DB29F700D811D1124911D0895F894A4
:02063000FFCFFA
:100632000000000000000000101010101010101038
:1006420018181818181818181C1C1C1C1C1C1C1C08
:100652001E1E1E1E1E1E1E1E1F1F1F1F1F1F1F1FB0
:100662004C434420546573740001000A006400E89E
:04067200031027004A
:00000001FF
