S00D00006C61625F352E7372656354
S11300000C9434000C9449000C9449000C9449005D
S11300100C9449000C9449000C9449000C94490038
S11300200C9449000C9449000C9449000C94490028
S11300300C9449000C9483000C9449000C944900DE
S11300400C9449000C9449000C9449000C94490008
S11300500C9449000C9449000C9449000C944900F8
S11300600C9449000C94490011241FBECFEFD8E032
S1130070DEBFCDBF11E0A0E0B1E0E0E1F2E002C0FC
S113008005900D92A430B107D9F70E9464000C9436
S113009006010C940000FC01408121E030E002C024
S11300A0220F331F6A95E2F7242B20830895FC0165
S11300B0908121E030E002C0220F331F6A95E2F7FD
S11300C020952923208308950E948D0060E18DE00E
S11300D00E949D0060E18DE00E949D002FEF83ED62
S11300E090E3215080409040E1F700C000000E945E
S11300F0F6002FEF83ED90E3215080409040E1F72C
S113010000C00000E7CF1F920F920FB60F92112488
S11301100F900FBE0F901F90189564E08AE290E054
S11301200E944B0067E08AE290E00E944B0060E08E
S113013084E290E00E944B000895CF93DF93D82F80
S1130140C62F64E08BE290E00E94570067E08BE2E8
S113015090E00E94570060E085E290E00E94570022
S113016085E08A95F1F7000090E018C0D0FD03C047
S113017085B18E7F02C085B1816085B9D69585E051
S11301808A95F1F700008BB180688BB985E08A9578
S1130190F1F700008BB18F778BB99F5F983030F304
S11301A090E018C0C0FD03C085B18E7F02C085B148
S11301B0816085B9C69585E08A95F1F700008BB119
S11301C080688BB985E08A95F1F700008BB18F7751
S11301D08BB99F5F983030F38BB180618BB985E028
S11301E08A95F1F70000DF91CF910895CF93C0E095
S11301F009C0EC2FF0E0E050FF4F60818FEF0E94C8
S11302009D00CF5FC430A8F3CF910895F894FFCF39
S107021010204080F6
S9030000FC
