S00D00006C61625F352E7372656354
S11300000C9434000C9451000C9451000C94510045
S11300100C9451000C9451000C9451000C94510018
S11300200C9451000C9451000C9451000C94510008
S11300300C9451000C948A000C9451000C945100BF
S11300400C94AA000C9451000C9451000C9451008F
S11300500C9451000C9451000C9451000C945100D8
S11300600C9451000C94510011241FBECFEFD8E022
S1130070DEBFCDBF11E0A0E0B1E0E6E1F3E002C0F5
S113008005900D92A831B107D9F721E0A8E1B1E0BC
S113009001C01D92AB31B207E1F70E946C000C94D1
S11300A089010C940000FC01408121E030E002C091
S11300B0220F331F6A95E2F7242B20830895FC0155
S11300C0908121E030E002C0220F331F6A95E2F7ED
S11300D020952923208308950E94F4000E9465013D
S11300E0E1E8F0E080818A7F808380818260808380
S11300F085B58A7F85BD85B5826085BDEFE6F0E074
S1130100808181608083EEE6F0E08081816080837D
S11301107894FFCF1F920F920FB60F9211242F9352
S11301208F939F938091190190911A010196909356
S11301301A01809319018F30974221F410921A0109
S1130140109219019F918F912F910F900FBE0F90D4
S11301501F9018951F920F920FB60F9211242F9390
S11301603F934F935F936F937F938F939F93AF933B
S1130170BF93EF93FF9340911801242F30E0F901CE
S11301803196EE0FFF1FE25FFE4F60817181809117
S1130190190190911A010E947501220F331FF90170
S11301A0E25FFE4F608171810E947501862F642F8A
S11301B00E940401809118018F5F8093180184309C
S11301C011F410921801FF91EF91BF91AF919F919B
S11301D08F917F916F915F914F913F912F910F90EC
S11301E00FBE0F901F90189564E08AE290E00E9481
S11301F0530067E08AE290E00E94530060E084E2EA
S113020090E00E9453000895CF93DF93E82FF0E02D
S1130210EC5FFE4FD081E62FF0E0E050FF4FC0814D
S113022064E08BE290E00E945F0067E08BE290E084
S11302300E945F0060E085E290E00E945F0085E03C
S11302408A95F1F7000090E018C0D0FD03C085B195
S11302508E7F02C085B1816085B9D69585E08A9587
S1130260F1F700008BB180688BB985E08A95F1F7CE
S113027000008BB18F778BB99F5F983030F390E09B
S113028018C0C0FD03C085B18E7F02C085B18160F6
S113029085B9C69585E08A95F1F700008BB1806831
S11302A08BB985E08A95F1F700008BB18F778BB914
S11302B09F5F983030F38BB180618BB985E08A956C
S11302C0F1F70000DF91CF910895CF93C0E009C00A
S11302D0EC2FF0E0E050FF4F60818FEF0E940401AB
S11302E0CF5FC430A8F3CF910895AA1BBB1B51E183
S11302F007C0AA1FBB1FA617B70710F0A61BB70B92
S1130300881F991F5A95A9F780959095BC01CD0136
S10903100895F894FFCFEC
S113031610204080039F250D9949411F01190100B2
S10B03260A006400E80310273B
S9030000FC
